:100000000C9435080C947C080C947C080C947C08A7
:100010000C947C080C947C080C947C080C947C0850
:100020000C947C080C947C080C94C21B0C946F1AE2
:100030000C94482D0C947C080C947C080C947C083F
:100040000C947C080C947C080C947C080C947C0820
:100050000C947C080C94B31A0C947C080C947C08C7
:100060000C947C080C946B2D0C948D2D0C947C08B6
:100070000C947C080C947C080C947C080C947C08F0
:100080000C947C080C947C080C947C080C947C08E0
:100090000C947C080C947C080C947C080C947C08D0
:1000A0000C947C080C947C080C947C080631FF09A5
:1000B00074A1010975150026FF00952075088102BD
:1000C0000976150026FF00952075089102C00501EC
:1000D0000980A101850319012AB700150126B7007F
:1000E000950175108100C0050C0901A10185041955
:1000F000012AA002150126A002950175108100C0F9
:1001000005010906A1018505050719E029E7150084
:1001100025019508750181020507190029EF1500D1
:10012000250195F07501810205081901290595053C
:1001300075019102950175039101C005010906A1A0
:1001400001050719E029E7150025019508750181CA
:10015000029501750881010507190029FF15002680
:10016000FF00950675088100050819012905950508
:1001700075019102950175039101C0000101010112
:100180000101010101020202020202020202030352
:100190000303030303030404040404040405050522
:1001A00005050606060606070707070708080808E4
:1001B000090909090A0A0A0B0B0B0C0C0C0D0D0D91
:1001C0000E0E0E0F0F0F1010111111121213131427
:1001D00014151516161717181819191A1A1B1B1C9F
:1001E0001D1D1E1E1F2020212222232424252626F9
:1001F000272829292A2B2C2D2D2E2F30313232332E
:100200003435363738393A3B3C3D3E3F4041424336
:100210004445464748494A4C4D4E4F50515354551A
:100220005658595A5B5D5E5F616264656668696BCA
:100230006C6D6F7072737577787A7B7D7E80828348
:100240008587888A8C8E8F91939596989A9C9EA08C
:10025000A2A3A5A7A9ABADAFB1B3B5B7BABCBEC099
:10026000C2C4C6C9CBCDCFD1D4D6D8DBDDDFE2E462
:10027000E7E9EBEEF0F3F5F8FAFDFF7267626C69FF
:10028000676874206D6F6465205B4E4F4545505222
:100290004F4D5D3A2025750A007267626C69676888
:1002A00074206D6F6465205B454550524F4D5D3A3B
:1002B0002025750A007267626C696768742073652F
:1002C0007420687376205B4E4F454550524F4D5D0C
:1002D0003A2025752C25752C25750A007267626CED
:1002E000696768742073657420687376205B454580
:1002F00050524F4D5D3A2025752C25752C25750AD9
:10030000007267626C69676874207261696E626FFF
:100310007720736574206873763A2025642C2564F1
:100320002C25642C25750A00FFAA7F554072676250
:100330006C696768742074696D657220656E6162AE
:100340006C65642E0A007267626C69676874207459
:10035000696D65722064697361626C652E0A0022A2
:1003600023252628292A2C2D2F3032333536383AAA
:100370003B3D3E4042434547494A4C4E5051535500
:1003800057595A5C5E6062646668696B6D6F717321
:100390007577797B7D7F81838587898A8C8E909222
:1003A0009496989A9C9E9FA1A3A5A7A8AAACAEAF2D
:1003B000B1B3B4B6B8B9BBBCBEBFC1C2C3C5C6C772
:1003C000C9CACBCCCDCED0D1D2D2D3D4D5D6D7D723
:1003D000D8D9D9DADADBDBDBDCDCDCDCDCDDDDDD6B
:1003E000DDDCDCDCDCDCDBDBDBDADAD9D9D8D7D767
:1003F000D6D5D4D3D2D2D1D0CECDCCCBCAC9C7C614
:10040000C5C3C2C1BFBEBCBBB9B8B6B4B3B1AFAE51
:10041000ACAAA8A7A5A3A19F9E9C9A9896949290F7
:100420008E8C8A89878583817F7D7B7977757371CF
:100430006F6D6B6968666462605E5C5A59575553AC
:1004400051504E4C4A4947454342403E3D3B3A3865
:1004500036353332302F2D2C2A2928262523226F9A
:100460006C65645F6F6E20636D64206661696C65A6
:10047000640A0000AF7267626C696768742064691F
:100480007361626C65205B454550524F4D5D3A206B
:100490007267626C696768745F636F6E6669672E06
:1004A000656E61626C65203D2025750A0072676289
:1004B0006C6967687420656E61626C65205B454598
:1004C00050524F4D5D3A207267626C696768745F85
:1004D000636F6E6669672E656E61626C65203D2094
:1004E00025750A007267626C6967687420746F67AB
:1004F000676C65205B454550524F4D5D3A207267F1
:10050000626C696768745F636F6E6669672E656E9B
:1005100061626C65203D2025750A004445425547BF
:100520003A2064697361626C65642E0A0044454236
:1005300055473A20656E61626C65642E0A000000C2
:1005400029001E001F00200021002200230024009B
:100550002500260027002D002E002A003500AE00C1
:100560002B0014001A000800150017001C001800CA
:100570000C00120013002F00300031004C00A800C6
:10058000390004001600070009000A000B000D00E6
:100590000E000F0033003400000028004B006A00FA
:1005A000E1001D001B0006001900050011001000ED
:1005B000360037003800E500000052004E006B00A6
:1005C000E000E300E200000000002C00000000005A
:1005D000E6000151E4005000000051004F0000000F
:1005E000005C3A003B003C003D003E003F00400004
:1005F000410042004300440045004A004900C25CFB
:1006000001000100010001000100010001000100E2
:100610000100010001000100010001000100C35CB4
:1006200001000100010001000100010001000100C2
:1006300001000100010001000000010001000100B3
:1006400001000100010001000100010001000100A2
:100650000100010001000100000001000100010093
:100660000100010001000000000001000000000086
:1006700001000100010001000000010001000A006A
:100680002530325820006B6579626F6172645F7249
:1006900065706F72743A20006164645F6B65795FA6
:1006A0006269743A2063616E2774206164643A2041
:1006B000253032580A0064656C5F6B65795F62694A
:1006C000743A2063616E27742064656C3A2025308B
:1006D00032580A00646973706C61795F7365747570
:1006E0007032206661696C65640A0000DA02818FED
:1006F000D9F1DB40A4A62EAF646973706C61795F99
:10070000666C6970706564206661696C65640A0076
:1007100000A0C06F6C65645F696E697420636D646E
:10072000206E6F726D616C20726F746174696F6E90
:10073000206661696C65640A0000A1C86F6C65641D
:100740005F696E697420636D642073657420312065
:100750006661696C65640A0000AED580A81FD3008D
:10076000408D1420007267626C696768745F636F04
:100770006E6669672E7370656564203D2025640A86
:10078000007267626C696768745F636F6E66696741
:100790002E76616C203D2025640A007267626C69C8
:1007A0006768745F636F6E6669672E736174203D5E
:1007B0002025640A007267626C696768745F636F02
:1007C0006E6669672E687565203D2025640A007293
:1007D00067686C696768745F636F6E6669672E6DC2
:1007E0006F6465203D2025640A007267626C69674A
:1007F00068745F636F6E6669672E656E61626C65B3
:10080000203D2025640A007267626C696768745F26
:10081000636F6E66696720454550524F4D3A0A0036
:100820007267626C696768745F696E697420726769
:10083000626C696768745F636F6E6669672E6D6F5F
:100840006465203D20302E205772697465206465F0
:100850006661756C742076616C75657320746F20A9
:10086000454550524F4D2E0A007267626C696768A9
:10087000745F696E6974206565636F6E6669672071
:100880006973206E6F7420656E61626C65642E0AF8
:10089000007267626C696768745F696E697420735F
:1008A00074617274210A007267626C696768745FB0
:1008B000696E69742063616C6C65642E0A006D73E7
:1008C000675B25755D3A2025750A0052656D6F746A
:1008D000653A2072656C65617365205B25755D0AFC
:1008E0000052656D6F74653A207072657373205B9A
:1008F00025755D0A0052656D6F7465206D616372C8
:100900006F3A2072656C65617365205B25755D0AC1
:100910000052656D6F7465206D6163726F3A20706F
:1009200072657373205B25755D0A0063616C6320DB
:10093000636865636B73756D3A2025750A005541D0
:10094000525420636865636B73756D206D69736DB8
:1009500061746368210A00427974652073796E635B
:10096000206572726F72210A000A002530313662EA
:10097000003A200025303258000A722F63203031AF
:1009800032333435363738394142434445460A001C
:1009900032190A00047F3F1F643214643214783C19
:1009A0001E1E140A05202020200053435220002040
:1009B00020202000434150200020202020004E55C0
:1009C0004D2000556E646566696E656400464E0A8A
:1009D0000044656661756C740A004C617965723A11
:1009E00020006F6C65645F72656E646572393020DB
:1009F00064617461206661696C65640A006F6C658E
:100A0000645F72656E646572206461746120666102
:100A1000696C65640A006F6C65645F72656E64651D
:100A200072206F666673657420636F6D6D616E64AE
:100A3000206661696C65640A006F6C65645F6F664F
:100A40006620636D64206661696C65640A0000AEAF
:100A50000A0025303258006B6579626F6172645FFD
:100A60007365745F6C65643A20004B6579626F61F1
:100A700072642073746172742E0A005B435D005BC4
:100A8000445D005B535D005B575D005B525D000998
:100A9000025B00030100A0FA090400000103010148
:100AA000000921110100012240000705810308000F
:100AB0000A090401000103000000092111010001DD
:100AC000226D000705820320000A090402000203C8
:100AD0000000000921110100012222000705830303
:100AE000200001070503032000011201100100008E
:100AF0000008616E60600100010203010403300020
:100B000000000E034E004900420042004C00450028
:100B1000000012036E0075006C006C00620069003A
:100B200074007300000004030904000000000000CA
:100B30003E5B4F5B3E003E6B4F6B3E001C3E7C3E7F
:100B40001C00183C7E3C18001C577D571C001C5E86
:100B50007F5E1C0000183C180000FFE7C3E7FF00A1
:100B6000001824180000FFE7DBE7FF0030483A06D2
:100B70000E00262979292600407F05050700407FC1
:100B800005253F005A3CE73C5A007F3E1C1C0800EC
:100B9000081C1C3E7F0014227F2214005F5F005F50
:100BA0005F0006097F017F00006689956A0060602A
:100BB0006060600094A2FFA2940008047E04080014
:100BC00010207E20100008082A1C0800081C2A0893
:100BD00008001E10101010000C1E0C1E0C003038E7
:100BE0003E383000060E3E0E0600000000000000F9
:100BF00000005F000000000700070000147F147F62
:100C00001400242A7F2A1200231308646200364944
:100C100056205000000807030000001C224100007D
:100C20000041221C00002A1C7F1C2A0008083E08E4
:100C30000800008070300000080808080800000064
:100C4000606000002010080402003E5149453E004B
:100C500000427F4000007249494946002141494D08
:100C600033001814127F10002745454539003C4ACF
:100C700049493100412111090700364949493600E7
:100C8000464949291E0000001400000000403400BD
:100C90000000000814224100141414141400004130
:100CA000221408000201590906003E415D594E0018
:100CB0007C1211127C007F49494936003E41414176
:100CC00022007F4141413E007F49494941007F095F
:100CD000090901003E41415173007F0808087F0067
:100CE00000417F4100002040413F01007F08142265
:100CF00041007F40404040007F021C027F007F0493
:100D000008107F003E4141413E007F09090906006D
:100D10003E4151215E007F09192946002649494973
:100D2000320003017F0103003F4040403F001F208D
:100D300040201F003F4038403F0063140814630008
:100D40000304780403006159494D4300007F414189
:100D50004100020408102000004141417F000402CC
:100D6000010204004040404040000003070800002A
:100D70002054547840007F28444438003844444488
:100D80002800384444287F00385454541800000880
:100D90007E09020018A4A49C78007F08040478004F
:100DA00000447D4000002040403D00007F1028446A
:100DB000000000417F4000007C04780478007C083B
:100DC00004047800384444443800FC1824241800F3
:100DD00018242418FC007C080404080048545454C7
:100DE000240004043F4424003C4040207C001C209C
:100DF00040201C003C4030403C0044281028440067
:100E00004C9090907C004464544C4400000836415F
:100E100000000000770000000041360800000201D9
:100E2000020402003C2623263C00000000000000D3
:100E3000404040F0F8F8FF38FFF8F83FF8F8FF3886
:100E4000FFF8F8F040404000000000000080C0C003
:100E5000C0800000C0C08000000080C0C000C0C0D2
:100E6000000080C0C00000000000C0C0C0C0C000C2
:100E7000C0C00000000000000000000000000000F2
:100E80000000000000000000000000000000000062
:100E90000000000000000000000000000000000052
:100EA000000000000000000000C0F0F8FC3E1E063C
:100EB000010000007F4141417F007F4141417F00AF
:100EC0000080C0E07E5B4F5BFEC00000C000DCD74E
:100ED000DEDEDED7DC00C000000000000000000005
:100EE0000000000000000000000000000000000002
:100EF000494949FFFFFFFFE0DFBFBF00BFBFDFE0A1
:100F0000FFFFFFFF49494900000000001F3F6060EC
:100F1000E0BF1F007F7F071E381E077F7F007F7F97
:100F20000E1F3B716000000000007F7F0C0C0C0066
:100F30007E7E007F7E0303007F7E03037E7E0303AD
:100F40007F7E000F3E703C063C703E0F00327B49B6
:100F5000493F7E007F7E0303001E3F69696F2600C4
:100F6000000000000000000000030F1F3F3C7870ED
:100F7000600000007F4141417F007F4141417F008F
:100F8000307B7F7830202030787F3B0003000F7F5C
:100F90000F0F0F7F0F000300000000000000000093
:100FA0000000000000000000000000000000000041
:100FB000010101070F0F7F0F7F0F0F7E0F0F7F0FB4
:100FC0007F0F0F070101010000000000000000007A
:100FD000000101000000000000000000000000000F
:100FE0000000000000000000000000000000000001
:100FF00000000000000000000000000000000000F1
:1010000000000000000000000000000000000000E0
:1010100000000000000000000000000000000000D0
:1010200000000000000000000000000000000000C0
:1010300000000000000000000000000000000000B0
:1010400000000000000000000000000000000000A0
:101050000000000000000000000000000000000090
:101060000000000000000000000011241FBECFEFB0
:10107000DAE0DEBFCDBF04B603FE27C080918F0645
:1010800090919006A0919106B09192068730904B76
:10109000A740B04BD1F410928F0610929006109298
:1010A00091061092920614BE84B7877F84BF0FB654
:1010B000F894A895809160008861809360001092F8
:1010C00060000FBEE0E0F8E3099526E0A0EBB1E098
:1010D00001C01D92AF38B207E1F711E0A0E0B1E026
:1010E000E8EAF0E602C005900D92A03BB107D9F7FF
:1010F0000E9454250C941A300C940000FF93EF9337
:10110000E091B001F091B101309709F00995EF91AC
:10111000FF910895FC018591803011F0EFDFFBCF46
:101120000895FF27E0E230E247FF0CC0419597FFAA
:1011300009C0EDE26095709580959095611D711DD7
:10114000811D911D27FF02C0219530E350E2AA279F
:10115000660F771F881F991FAA1FA41710F0A41BE2
:1011600063955A95A9F7AA3008F0A95FA05DAF93DF
:10117000F395611571058105910541F7ED3211F483
:10118000EF93F395F21718F43F93F395FBCF8F91FC
:10119000B5DFFA95E1F70895E991F99185918030ED
:1011A00021F0853219F0AADFF9CF089520E0E89404
:1011B00055915532C1F3503311F4689455915A3317
:1011C00048F4505390F3220F022E220F220F200DCD
:1011D000250FF4CF0EF4219589919991533619F387
:1011E000533729F1533559F1BC0188279927E894E1
:1011F0005C3621F48991999168945591543639F46B
:1012000046EF7EF077FF0DC08FEF9FEF0AC0553796
:101210004AE039F0583540E121F0523642E009F019
:101220000895FF93EF937DDFEF91FF91B7CFFF9389
:10123000EF93FC0181918030B9F360DFFBCFFF9326
:10124000EF9368DFF1CFDF93CF93CDB7DEB725966D
:10125000A3DFCF91DF910895E8EDF0E080818E7FEC
:1012600080831092E2001092DA001092E100A0EE6A
:10127000B0E08C9181608C9380818F77808319BCE2
:10128000A7EDB0E08C918E7F8C9380818F7E8083E0
:1012900010924F0408952091E4003091E50095E606
:1012A000A9012091EC00822F817020FF06C080915F
:1012B000E80080FF06C080E008952091E80022FD4C
:1012C0001AC080917A04882389F0853089F0809152
:1012D000EB0085FD0FC02091E4003091E50042173E
:1012E0005307F9F29150E1F684E0089582E0089501
:1012F00083E0089581E00895EF92FF920F931F938A
:10130000CF937C018B010E944B09C82F811117C01C
:101310008091E80085FD0BC08091E8008E77809376
:10132000E8000E944B09882399F3C82F08C0F701F1
:1013300081917F018093F1000150110949F78C2FB1
:10134000CF911F910F91FF90EF90089580917C04B1
:1013500087FF13C08091E80082FF06C08091E800FB
:101360008B778093E80004C080917A048111F2CFDA
:10137000089580917A048823D9F38091E80080FF52
:10138000F8CF8091E8008E77ECCF982F9093E9000A
:10139000242F762F50E0891731F07091EC002091C6
:1013A000ED005091F00021FD07C09F5F973071F76D
:1013B0008093E90081E008953091EB003E7F309307
:1013C000EB003091ED003D7F3093ED003091EB006C
:1013D00031603093EB007093EC002093ED0050935C
:1013E000F0002091EE0027FDE0CF80E00895CF923D
:1013F000DF92EF92FF920F931F93CF93DF93C8ED8D
:10140000D0E088818F7E8883E7EDF0E08081816085
:10141000808384E082BF81E080934F0488818E7F47
:10142000888302EE10E0F80110821092DA0081EE5B
:10143000C82ED12CF601108288818F77888388810D
:101440008068888388818F7D888319BC10927A0494
:1014500010927B04109279041092780490EEE92E99
:10146000F12CF70180818B7F808388818160888364
:1014700042E060E080E00E94C509F60180818E7F35
:101480008083F8018081816080838081886080838F
:10149000F70180818E7F8083888180618883DF91DE
:1014A000CF911F910F91FF90EF90DF90CF90089513
:1014B000FC01809182049091830486179707A0F025
:1014C0006115710529F49091E8009E779093E800EA
:1014D00090E06115710551F4911108C08091E80008
:1014E00082FF34C080E00895BC01F2CF80917A047D
:1014F0008823C1F18530C1F18091E80083FD30C0BF
:101500008091E80082FDEACF8091E80080FFE1CF82
:101510008091F3002091F200382F6115710519F0C8
:101520002830310558F091E02830310509F090E07D
:101530002091E8002E772093E800CBCF8191809313
:10154000F100615071092F5F3F4FE7CF80917A041E
:10155000882341F0853041F08091E80083FFBECFC1
:1015600081E0089582E0089583E008950895089544
:101570008091570408959C014FB7F89480913804E6
:1015800090913904A0913A04B0913B044FBF821B63
:10159000930B0895829590E09C01220F331F220F38
:1015A000331F2C7C95958795959587958373282B6C
:1015B00030E0C901880F991F8A7A359527952575DE
:1015C000822B089580919A03811110929A030895B5
:1015D0009295907F890F982F97708695869586951E
:1015E00025E0829FF0011124EB59FC4F50E040E0D0
:1015F00080E0219130E0092E02C0369527950A94AB
:10160000E2F721703327042E01C0220F0A94EAF773
:10161000822B4F5F5F4F4530510559F708959295E2
:10162000907F890F982F977041E001C0440F9A95E1
:10163000EAF786958695869595E0899FF0011124B5
:10164000EB59FC4F30E020E070E05191DF01119741
:10165000CB01022E02C0969587950A94E2F781701D
:1016600081958527842385278C932F5F3F4F2530D5
:10167000310559F7089580916403909133039813CD
:1016800001C008958F5F8770FACF209129033091B0
:101690002A032817390771F090932A0380932903AE
:1016A000E0911004F0911104309721F00084F1854D
:1016B000E02D0994089520912703309128032817DD
:1016C000390771F09093280380932703E091100469
:1016D000F0911104309721F00680F781E02D0994F4
:1016E0000895E0911004F0911104309721F00190D9
:1016F000F081E02D099480E00895FA01811101C084
:10170000FB01099480915104982F9E7F29F48170E8
:1017100082608093510408958635E8F38170846572
:10172000F8CFAF92BF92DF92EF92FF920F931F9389
:10173000CF93DF93082F162FE901E42FF0E0E5584F
:10174000FE4F611110C0E4915E2F4E2F4983E88354
:101750005A83DF91CF911F910F91FF90EF90DF900F
:10176000BF90AF900895E62EF12C4491D42EE42F33
:10177000F0E026E0829FC00111242FEF30E0B90194
:101780000E94B32E802F90E0880F991F55E5569F39
:10179000D001579FB00D11248A1B9B0B982F990FD6
:1017A000890F5901AE18BF08AE9ED001AF9EB00D93
:1017B000BE9EB00D11245B2F189F80011124012FB4
:1017C00011275901A01AB10AAE9E8001AF9E100DDB
:1017D000BE9E100D11245901A81AB108AE9CC0017B
:1017E000AF9C900DBE9C900D1124892F9927281B2A
:1017F000390B2E9FC0012F9F900D3E9F900D1124FD
:10180000E92F62307105A1F050F46115710509F4FA
:101810009DCF6130710581F0EB2F512F97CF643050
:10182000710569F080F06630710509F48FCFF4CF4F
:10183000E42F4B2F592F8ACFE42F412F87CFEB2F47
:10184000542F492F83CF4B2F5D2DE12F7FCF9091C8
:10185000A20392FF06C0282F28712830F9F4877F51
:10186000846093FF06C0282F28712831F1F4877E09
:1018700084612091A30320FF06C0382F38713830CF
:10188000D9F4877F816021FF06C0282F2871283175
:10189000D1F4877E816194FD877E0895282F24717D
:1018A0002430F9F68B7F8860DCCF282F2471243117
:1018B00001F78B7E8861DDCF382F3171313019F718
:1018C0008E7F8860E0CF282F2171213121F78E7E15
:1018D0008861E1CFCF93DF9325E0829FC00111247F
:1018E000FC01E70FF11DA4E0EE0FFF1FAA95E1F741
:1018F000E60FF11DEE0FFF1FE25CFA4FC591D49188
:10190000CE01C238D105B9F1E8F5C133D10509F4EA
:1019100099C050F5C932D10509F48DC0CA32D1053C
:1019200009F497C0C11532E5D30708F0B6C0C11558
:1019300041E5D40708F024C1C83ED10508F09DC098
:10194000C03ED10568F5C83AD10508F089C0C53A4E
:10195000D10508F0EDC0C130D10511F1209709F48F
:1019600043C02497E8F440C0C533D10509F45CC0F6
:10197000C933D105B9F62091A203237089F080EE16
:1019800090E00EC0C33ED10591F168F4C03ED10590
:10199000F9F0C23ED10531F62091A20322FD20C00C
:1019A000DF91CF910895C63ED10561F1C73ED105C3
:1019B00081F1C43ED10509F0B5CF2091A30321FFE9
:1019C000EFCF8091A20384FD0FC087EE90E0E8CFB7
:1019D0002091A20320FD01C13091A30330FFE0CF8D
:1019E00083EE90E024FFDCCF90E080E0D9CF20911F
:1019F000A20322FDF5C03091A30330FDC0CF24FF28
:101A0000CFCFF2CF2091A20323FFCACF24FDECCF8A
:101A1000DCCF2091A20323FDE6C03091A30331FF68
:101A2000EECF84EE90E0BCCF2091A20325FFB8CF8B
:101A300089E290E0B5CF2091A20325FFB1CF85E3E5
:101A400090E0AECF2091A20326FFAACF8AE290E0D9
:101A5000A7CF2091A20326FFA3CF81E390E0A0CFE0
:101A6000CF3BD10508F6C85AD0E0CC0FDD1FCE5AC7
:101A7000DE4F88819981946493CFC11520E5D20708
:101A800008F062C0C11530E4D30708F059C0DA95F8
:101A9000C115DF4108F484CFA7CFC11586E5D8076B
:101AA00018F5C11525E5D20708F080C0C11534E549
:101AB000D30708F076C09C2F96959695AE0143709B
:101AC0005527C115D34508F460C021E030E002C0BD
:101AD000220F331F4A95E2F740E2949FC001112480
:101AE000822B932B9A685CCFC1152AE5D20778F434
:101AF000C11539E5D30708F063C0C11548E5D4071F
:101B000008F472CF9C2F8827806F906A49CFCE014E
:101B100090568115904208F067CF8D2F8F710E94EB
:101B2000270C90E0982F882788279F718C2B46C020
:101B3000C55AD0E0C15BDE4F888190E0906430CF21
:101B4000CE019F70906A2CCF9E01E4E036952795D8
:101B5000EA95E1F723708C2F86958695837030E2A5
:101B6000839FC0011124922BC37021E030E002C09A
:101B7000220F331FCA95E2F7822B932B9C6810CF5C
:101B80009C2F8827816F906A0BCF21E030E002C044
:101B9000220F331F4A95E2F740E2949FC0011124BF
:101BA000EBCF9C2F8827846F906AFACE8C2F0E94EF
:101BB000270C90E0982F882788279F719062F0CE9D
:101BC0008C2F8F700E94270C34E0D695C7953A95DC
:101BD000E1F7CF709C2F9069E3CE89E390E0E0CEEF
:101BE00082EE90E0DDCE86EE90E0DACEBF92CF922C
:101BF000DF92EF92FF920F931F93CF93DF938C01AD
:101C0000C0901204D0901304E0901404F0901504D6
:101C100080919B0390919C03A0919D03B0919E03A2
:101C2000C82AD92AEA2AFB2ACFE1D0E0BC2ED70164
:101C3000C6010C2E04C0B695A795979587950A9472
:101C4000D2F780FD0EC0219788F7B12C8B2DDF9144
:101C5000CF911F910F91FF90EF90DF90CF90BF90A9
:101C60000895B8018C2F0E946A0C019761F3EECFA2
:101C7000CF93DF93EC010E94F60DBE01DF91CF916F
:101C80000C946A0C0E94380E292F2F7092959F7029
:101C900092509E3078F4E92FF0E0E45EFF4C0C9413
:101CA000DB2E803F19F020F4883E20F481E0089577
:101CB000843FE1F380E00895883EC0F3813FD1F78F
:101CC000F5CF822F869586958695089581FF03C06E
:101CD000809888980895809AFCCFCF93DF93682FDF
:101CE00081E06A3019F06D3029F480E0DF91CF9106
:101CF0000C94F80E80918D0690918E0626E0FC01E2
:101D0000A7E8B6E001900D922A95E1F7603E08F44D
:101D100056C026E0FC0111922A95E9F7C0918D0684
:101D2000D0918E0646E050E0BE0187E896E00E9422
:101D3000622FC758D4409E012A5F3F4F892B21F163
:101D400085E0D695C7958A95E1F741E050E0CA0154
:101D500002C0880F991FCA95E2F7609185047091BF
:101D60008604862B972BB901E5E076956795EA9571
:101D7000E1F702C0440F551F6A95E2F7842B952BBB
:101D8000909386048093850440918404642F70E0CE
:101D9000C9010E94B32E481B463010F4240F311D98
:101DA000211582E0380710F030E020E029573B4F42
:101DB00030938E0620938D06DF91CF910895F6E043
:101DC0006F9FB0011124665D744F46E050E00E94A1
:101DD0004C2FA4CFCF93DF93EC01FE0184918111AE
:101DE00003C0DF91CF9108950E946D0E2196F5CF2B
:101DF000CF93382FE0918D06F0918E06E758F4408E
:101E000020918404622F70E0CF010E94B32E281B22
:101E1000822F332361F066E00E94992EC82FC150B3
:101E200010F4CF91089580E20E946D0EF8CF9F01CB
:101E3000280F311D2115324018F080E0F0E0E0E07D
:101E40008E0F9F2F911D89579B4F90938E068093E5
:101E50008D06E7CFCF92DF92EF92FF920F931F9301
:101E6000CF93DF936C017B0164E670E088E70E940A
:101E7000B62DEC0197FD12C010E000E0F601E00F76
:101E8000F11F849164E670E00E94122EEC01892B10
:101E900029F40F5F1F4F0E151F0581F70E94952E25
:101EA000CE01DF91CF911F910F91FF90EF90DF90C6
:101EB000CF9008952FB7F894809138049091390409
:101EC000A0913A04B0913B042FBF805A9541AF4F87
:101ED000BF4F80933C0490933D04A0933E04B09385
:101EE0003F048091400481110CC062E070E083E700
:101EF00094E00E942A0F892B39F08FE594E00E942C
:101F00008A0880914004089581E080934004F9CFCD
:101F100020912301222351F12091A20327FF26C003
:101F2000E62FE695E695E695EE3178F4E80FF92F81
:101F3000F11D677021E030E001C0220F6A95EAF7D9
:101F4000209582812823228308958091500480FF68
:101F500019C01F926F9386EB96E09F938F930E9418
:101F600023090F900F900F900F900895FC01329667
:101F700008962191621303C0DF0111971C92E817A4
:101F8000F907B9F7089520912301222349F12091FF
:101F9000A20327FF25C0E62FE695E695E695EE31EC
:101FA00070F4E80FF92FF11D677021E030E001C0F7
:101FB000220F6A95EAF78281822B828308958091AD
:101FC000500480FF1EC01F926F9388E996E09F9394
:101FD0008F930E9423090F900F900F900F900895F8
:101FE000FC0132962FEF30E04191641751F02F3F02
:101FF00019F4411101C0232F3F5F3630A9F72F3F5D
:1020000009F40895820F911D27FD9A95FC016283C2
:102010000895EF92FF920F931F93CF93DF938091D8
:102020000C0490919903892B90919803892B8093AC
:10203000B20190919A039923B1F0892B8093B20158
:1020400080912301882309F45DC08091A20387FF5A
:1020500059C08EE1E4EBF1E090E0815008F054C00B
:1020600091110E94E20AE0911004F091110430975E
:1020700009F450C080912301882359F08091A20374
:1020800087FF07C08091B2018093B30185E0809300
:10209000B2010280F381E02D82EB91E009958091FD
:1020A000500482FF37C080FF04C086E896E00E949B
:1020B0008A08C2EBD1E08AEBE82E81E0F82E00E836
:1020C00016E08091500480FF0BC088811F928F938F
:1020D0001F930F930E9423090F900F900F900F9062
:1020E0002196EC16FD0669F78091500480FF12C01E
:1020F0008EE796E0DF91CF911F910F91FF90EF90C7
:102100000C948A0886E0A6CF2191222309F4A5CF5A
:102110009F5FA3CFDF91CF911F910F91FF90EF9021
:10212000089510929903109298030E94091090E06C
:1021300080E00E945B0B90E080E00C94450B609384
:1021400012047093130480931404909315040C9458
:1021500091100F931F9341E050E060E070E004C0E5
:10216000440F551F661F771F8A95D2F7CB01BA011E
:1021700060957095809590950091120410911304CC
:10218000209114043091150460237123822393233A
:102190001F910F910C949F10909197038095892324
:1021A00080939703282F277071F4282F082E000C96
:1021B000330B9217130639F08595859585950E9406
:1021C000A9101092970308950F931F9341E050E0D8
:1021D00060E070E004C0440F551F661F771F8A95AA
:1021E000D2F78091120490911304A0911404B0913D
:1021F00015048A019B01082B192B2A2B3B2BC901A3
:10220000B8011F910F910C949F1060939B037093E2
:102210009C0380939D0390939E030C9491101092C5
:102220000C0480912301E4EBF1E0882359F08091C4
:10223000A20387FF07C08EE1DF011D928A95E9F7AF
:102240000C94911086E0F8CF1F93CF93DF93CDB716
:10225000DEB7AA970FB6F894DEBF0FBECDBF8CE7EE
:1022600094E02091F100DC012D93CD01B4E084389D
:102270009B07B9F780917D04833009F46FC0B8F4EF
:10228000813009F446C0823009F4B0C08091E80082
:1022900083FF38C180917C0490917D049A3008F0CE
:1022A00031C1E92FF0E0E65DFF4C0C94DB2E8A3063
:1022B00009F48BC08B3009F46EC0893039F78091F6
:1022C0007C04813219F780918004909181040297F7
:1022D000E8F68091E800877F8093E8008091E8002D
:1022E00082FF37C09091F3008091F200029729F4A9
:1022F0008091F1008B7F813021F48091F1008093F7
:1023000057048091E8008B778093E8000E94A6092B
:10231000BDCF80917C04813A09F0B8CF8091E8006C
:10232000877F8093E8008091800490918104892BBD
:1023300061F460E288E594E070E00E94580A8091C0
:10234000E8008B778093E800A1CF60E090E080E028
:10235000F3CF80917A048111C1CF98CF80917C0412
:10236000813A09F093CF8091800490918104892B68
:1023700009F08CCF8091E800877F8093E8008091FE
:10238000E80080FFFCCF809123018093F1008091D1
:10239000E8008E77B9CF80917C04813209F076CF46
:1023A0008091800490918104892B09F06FCF8091F6
:1023B000E800877F8093E8000E94A60980917E0450
:1023C000809323010E940F1161CF80917C048132A0
:1023D00009F05CCF8091E800877F8093E8000E943D
:1023E000A60980917F048093560450CF80917C048D
:1023F000813A09F04BCF8091E800877F8093E80015
:102400008091E80080FFFCCF80915604BECF8038D9
:1024100099F0823809F076C0809180048F708730FF
:1024200008F070C08093E9008091EB0085FB88275D
:1024300080F91092E90006C08091780490917904A7
:10244000911182609091E800977F9093E8008093CB
:10245000F1001092F1008091E8008E77BBC18823D3
:1024600009F4A8C1823009F04DC080917E04811129
:10247000ACC1809180048F702FEF280F263008F0B8
:1024800041C08093E9002091EB0020FF9EC1933072
:1024900031F48091EB0080628093EB0096C19091C3
:1024A000EB0090619093EB0021E030E001C0220F3F
:1024B0008A95EAF72093EA001092EA008091EB00F7
:1024C0008860EACF81111EC010917E041F77809131
:1024D000E3008078812B8093E3008091E800877F80
:1024E0008093E8000E94A6098091E80080FFFCCF5D
:1024F0008091E30080688093E30082E0111183E023
:1025000080937A048091E80083FF0AC08091E800FC
:10251000877F8093E8008091EB0080628093EB00DE
:10252000AA960FB6F894DEBF0FBECDBFDF91CF9154
:102530001F9108958058823028F720917E043091B1
:102540007F042C3DE3E03E07A1F583E08A838AE225
:1025500089834FB7F894DE01139620E03EE051E204
:10256000E32FF0E050935700E49120FF03C0E29581
:10257000EF703F5FEF708E2F90E0EA30C0F0C796AB
:102580008D939D932F5F243159F74FBF8091E800C1
:10259000877F8093E8006AE270E0CE0101960E9496
:1025A000580A8091E8008B778093E800ABCFC09603
:1025B000E7CF8091800490918104432F55274330C9
:1025C000510509F44AC078F54130510509F485C038
:1025D0008BE590E0EFE8FAE04230510509F092CF48
:1025E0002091E800277F2093E80020918204309119
:1025F00083048217930708F49C0140E021153105FC
:1026000009F070C041116EC08091E80082FDC9CF11
:1026100080917A04882329F2853019F28091E800AC
:1026200083FFF2CFBECF4132510509F447C0423299
:10263000510509F067CF8330910508F063CFFC01A5
:10264000EE0FFF1FEC55FE4F0190F081E02D8F55EE
:102650009E4FDC018C9190E01DC033272130310565
:10266000E9F02115310579F022303105F9F02330F8
:10267000310509F047CFECEFFAE0E4918E2F90E0BE
:10268000ECEFFAE007C0E6E2FBE0E4918E2F90E089
:10269000E6E2FBE0009709F435CFA2CFE2E1FBE0F0
:1026A000E4918E2F90E0E2E1FBE0F4CFE2E0FBE08A
:1026B000E4918E2F90E0E2E0FBE0ECCF83309105D7
:1026C00008F020CF880F991FFC01E655FE4F0190BE
:1026D000F081E02D89E090E083CF82E190E0EAEEA6
:1026E000FAE07ECF80917A04882309F45ACF8530AE
:1026F00009F457CF8091E80083FD53CF8091E80023
:1027000082FD82CF8091E80080FF78CF9091F30026
:102710008091F2002115310519F08830910550F0B3
:1027200041E0089709F040E08091E8008E778093BF
:10273000E80064CF44914093F10031962150310973
:102740000196E8CF803809F0DDCE8091E800877FE0
:102750008093E80080917B048093F1007CCE81110E
:10276000D1CE10917E04123008F0CCCE8091E800DA
:10277000877F8093E80010937B040E94A6091123B1
:1027800011F084E005C08091E30087FDFACF81E07D
:1027900080937A0442E061EC81E00E94C50942E244
:1027A00061EC82E00E94C50942E261EC83E00E9494
:1027B000C509A8CE80917E04813009F0A3CE81E0C6
:1027C000933009F080E0809379041092E9008091C1
:1027D000E800877F8093E8000E94A60993CE8823B3
:1027E00041F0809590910C04892380930C040C9403
:1027F00009100895882339F090910C04982B909338
:102800000C040C9409100895882379F19CEF980F1B
:10281000913A38F4682F82EB91E00E94880F0C9473
:10282000091090E2980F983088F4877021E030E02A
:10283000A90102C0440F551F8A95E2F7CA0180958D
:1028400090910C04892380930C04E9CF9BE5980FA9
:10285000933020F490E080E00C945B0B885A873131
:1028600020F490E080E00C94450B0895CF93C82F9E
:10287000882309F467C08CEF8C0F813AC0F58091F2
:102880002301882311F18091A20387FF1EC0EC2F42
:10289000E695E695E695F0E0EE54FE4F828190E0F5
:1028A0004C2F477021E030E002C0220F331F4A95C1
:1028B000E2F782239323892B91F06C2F82EB91E036
:1028C0000E94880F0E9409100AC0E4EBF1E08AEB35
:1028D00091E02191C21789F38E179F07D1F76C2FD2
:1028E00082EB91E00E94C30FCF910C94091080E21B
:1028F0008C0F883068F4C77021E030E001C0220FEF
:10290000CA95EAF780910C04822B80930C04ECCFDB
:10291000EBE5EC0FE33040F4F0E0E15BFE4F80814B
:1029200090E0CF910C945B0BC85AC73158F4EC2F50
:10293000F0E0EE0FFF1FEE5AFE4F80819181CF91A4
:102940000C94450BCF91089510920B048091500484
:1029500080FF08C086E493E09F938F930E94230931
:102960000F900F9008959FB7F89410924D049FBF59
:1029700090917A04943009F048C02091E9002F70BA
:102980003091EC00932F917030FD90E8922B23E072
:102990002093E9002091EB0020FF34C02091EE004D
:1029A00027FF30C020919F03222321F02091E800CF
:1029B00025FF28C010929F0326E03091E80035FFE4
:1029C00014C08093F1008091E80085FD27C08091BC
:1029D000E80080FFFCCF8091E8008E778093E800CC
:1029E0009F709093E90080E0089530917A0434302C
:1029F00049F43091EB0035FD05C0215041F481E0F0
:102A000080939F039F709093E9008FEF0895EFE903
:102A1000FFE03197F1F700C00000CFCF8FB7F894F7
:102A200021E020934D048FBFDBCFCF93DF9300D005
:102A30000F92CDB7DEB790917A04943019F589835F
:102A40007B836A8382E08093E9008FEF9091E800B6
:102A5000815095FD06C095ED9A95F1F70000811122
:102A6000F5CF8091E80085FF0DC050E040E063E0C5
:102A700070E0CE0101960E947C098091E8008E777B
:102A80008093E8000F900F900F90DF91CF91089501
:102A9000BC0184E00C941515BC0183E00C94151561
:102AA000CF93DF93EC01809123018823B1F18091D2
:102AB000A20387FF32C060E282E08093E9008FEFDB
:102AC0009091E800815095FD06C095ED9A95F1F73B
:102AD00000008111F5CF8091E80085FF1BC0809137
:102AE000230170E050E040E0811104C050E040E07C
:102AF00068E070E0CE010E947C098091E8008E774A
:102B00008093E80080E2FE01A8E5B4E001900D9218
:102B10008A95E1F7DF91CF91089568E081E0CDCF0C
:102B2000CF93C82F0E9436148C2FCF910C9404148D
:102B30008091510480FD0AC0E5EDF2E0118210821F
:102B40001282339652E0E33FF507C1F76E9A3EB129
:102B50003F7B2EB120644FB7F89485ED92E0FC01E5
:102B60005191CF0168E02EB9000000C057FF3EB977
:102B7000550F000000C000C000C03EB900C06A95FB
:102B800091F7F2E0833F9F0751F74FBF8FE594E045
:102B90000197F1F700C0000008958F929F92AF92C5
:102BA000BF92CF92DF92EF92FF920F931F93CF933A
:102BB000DF93FC01B280948081E08483C3EFD2E094
:102BC00005ED12E08BE4A82E88248394EE24EA9489
:102BD000F12C2BE4C22ED12C91101DC01B821A8225
:102BE00098014A81698188810E94910B25960D5F29
:102BF0001F4F83E0C532D80779F7DF91CF911F913E
:102C00000F91FF90EF90DF90CF90BF90AF909F908B
:102C10008F900C9498152B81222309F121502B833E
:102C20003C818A2D821B311101C0822F9091540466
:102C3000899FC0011124B6010E94B32E6A8321111D
:102C400004C0332311F01C82AB8222E02B1540F22A
:102C5000809152048883809153048983C1CF0E945C
:102C60003C2F823091400CF0BBCF82E08B15C0F43A
:102C70000E943C2FB7010E94C72E888322E02B15AB
:102C800090F40E943C2F209153042695622F70E00F
:102C90000E94C72E280F29831A82AB828C82A0CF74
:102CA00080915204EACF20915304F5CFEF92FF9226
:102CB0001F93CF93DF93EC0185EDE82E82E0F82E91
:102CC00010E08C8197014091540460915304810F6E
:102CD0000E94910B175E83E0E80EF11C1A3F89F702
:102CE0000E9498159A818C8190FF08C08F5F8C8319
:102CF000DF91CF911F91FF90EF9008958150F7CF12
:102D0000BF92CF92DF92EF92FF920F931F93CF93D8
:102D1000DF93FC018281DD24DA9480FD02C0DD2492
:102D2000D39405ED12E0D0E0C0E02AE0B22EF80125
:102D300011821082128294E0E92EF12CC12C809134
:102D4000D2028C0D8B300CF43DC06B2D0E94A52E51
:102D5000892F082E000C990B8C179D0791F48091F8
:102D600054048E9DA0018F9D500D112455954795BB
:102D700055954795980160915304809152040E94A3
:102D8000910BCD0CF1E0EF1AF108C9F621960D5F19
:102D90001F4FCA30D10559F60E9498158091D20272
:102DA00091E0D91215C0811111C089E08093D2023F
:102DB000DF91CF911F910F91FF90EF90DF90CF9017
:102DC000BF90089587FFC5CF865FC3CF8150EECFF8
:102DD00090E00196BE010E94C72EE8CF0F931F938B
:102DE000CF93DF93C5EDD2E0FE01118210821282F3
:102DF000339682E0E33FF807C1F710E000E08091EE
:102E0000D302082E000C990B081719078CF180913A
:102E10001001082E000C990B801791074CF19E01B0
:102E20004091540460915304809152040E94910B8C
:102E30000F5F1F4F23960A30110509F70E9498155E
:102E400080910F019091D302980F9093D30220911B
:102E50001001280F20931001121614F499301CF061
:102E6000819580930F01DF91CF911F910F9108956C
:102E7000198218821A82DCCF8F929F92AF92BF92F2
:102E8000CF92DF92EF92FF920F931F93CF93DF9336
:102E9000EC014C81042F10E09801D8010E940B3006
:102EA0009B01AC010E94D62F4B015C01E0E2F0E0F7
:102EB000E01BF10BA5E5B0E0AC019B010E94D62F11
:102EC0006B017C019F01DF010E94E12E9B01AC019F
:102ED0000E94E12F9B01AC01280D391D4A1D5B1D8D
:102EE000C701B6010E94E92FF22E822F90E039E24D
:102EF0003F15D8F143E0249F900111243595279583
:102F0000122F109595EDC92E92E0D92E00E085E59F
:102F1000E82EEF188E2D01FD8F2D9601412F609127
:102F200053040E94910B0F5F53E0C50ED11C0A3071
:102F300089F70E9498159C8181E0992319F09032BD
:102F400019F48FEF8093110180911101890F8C8307
:102F5000DF91CF911F910F91FF90EF90DF90CF9075
:102F6000BF90AF909F908F90089525E530E0A90124
:102F7000481B590BCA019A01220F331F280F391F12
:102F800037FFBCCF2F5F3F4FB9CFEF92FF920F9328
:102F90001F93CF93DF938C01C5EDD2E0F12CE12C90
:102FA000F80194816091530480915204F5E0EF168A
:102FB000F104FCF49923F9F09E01409154040E941D
:102FC000910B2FEFE21AF20A23968AE0E816F10439
:102FD00039F70E949815F801848190E0019681707C
:102FE00099278483DF91CF911F910F91FF90EF90EC
:102FF0000895992309F39E0140E0E1CF9091510497
:1030000090FF0CC0E5EDF2E081836083428333964C
:1030100092E0E33FF907C1F70C94981508950F93D8
:103020001F93CF93DF9300D00F92CDB7DEB78C0103
:103030008091D40281110AC09E012F5F3F4F4FEF54
:103040006FEF0E94910B8A818093D402F801648112
:10305000613069F08091D40240E0662361F040E085
:10306000623011F44091D40280E060E004C06091CD
:10307000D40240E080E00E94FE17F801848190E0D5
:10308000019663E070E00E94C72E84830F900F903A
:103090000F90DF91CF911F910F910895CF93DF9300
:1030A00000D00F92CDB7DEB79091510490FF0AC0C7
:1030B0009E012F5F3F4F0E94910B4B8169818A8156
:1030C0000E94FE170F900F900F90DF91CF910895FF
:1030D000CF93DF93EC01EC81F0E0E15AFC4F449197
:1030E000E1E5F4E0628181810E944E188C818F5F5E
:1030F0008C83DF91CF910895CF93DF93EC01E1E5CD
:10310000F4E0438162818C810E944E188C818F5F34
:103110008C83DF91CF910895CF9384E090E00E945B
:103120006F2FC82F81E290E00E946F2F982F8C2F75
:10313000CF910895CF92DF92EF92FF926B017C01C5
:103140000E94820BB701A60188E090E0FF90EF900B
:10315000DF90CF900C94952F2F923F924F925F92D9
:103160006F927F928F929F92AF92BF92CF92DF9297
:10317000EF92FF920F931F93CF93DF9300D000D075
:1031800000D0CDB7DEB7582E262E342E2E83909148
:10319000510490FF47C0E92FE695AE2FB0E0AC5D3B
:1031A000BE4F8C9180930A049E7F923009F053C0E9
:1031B0009E012F5F3F4F852D0E94910B4B816981AE
:1031C0008A810E94FE17509252042092530430923A
:1031D00054048E81882309F49FC06091510470913A
:1031E000520480915304909154040E949A18809143
:1031F000500480FF17C0809154041F928F938091D8
:1032000053041F928F93809152041F928F938CEDE1
:1032100092E09F938F930E9423090FB6F894DEBF2C
:103220000FBECDBF26960FB6F894DEBF0FBECDBF42
:10323000DF91CF911F910F91FF90EF90DF90CF9092
:10324000BF90AF909F908F907F906F905F904F90C6
:103250003F902F900895823019F430905404B3CFEA
:10326000863019F450905204AECF8930D9F38931A9
:1032700009F0A9CFE9518E2F81708C838E2F809514
:1032800081708D83E695F0E0E85DFC4FE590F49069
:10329000FF2485EDC82E82E0D82EB12CA12C10E0A1
:1032A00000E09AE0692E712C21E0822E23E0922E1C
:1032B000C501B3010E94B32E9C81452C91112AC0F7
:1032C000460E8091500480FF12C0FF92EF921F9231
:1032D0008D818F931F924F921F930F939F928F9286
:1032E0000E9423090FB6F894DEBF0FBECDBF960132
:1032F000432D622D842D0E94910B0F5F1F4FAE0C4A
:10330000BF1C93E0C90ED11C0A30110589F60E943A
:10331000981559CF461AD5CF8091500480FF82CF9F
:103320001F923F921F922F921F925F9285EB92E025
:1033300070CFE1E5F4E0438121E1421B08F440E075
:1033400021E0628181810C94AC18E1E5F4E04381D5
:1033500021E1420F08F44FEF21E0628181810C945A
:10336000AC18E1E5F4E0628121E1621B08F460E061
:1033700021E0438181810C94AC18E1E5F4E06281A5
:1033800021E1620F08F46FEF21E0438181810C9409
:10339000AC18E1E5F4E0818121E04381628188504D
:1033A0000C94AC18E1E5F4E0818121E04381628175
:1033B000885F0C94AC1880915504882319F08150D3
:1033C000809355046091510470915204809153048C
:1033D000909154040C949A1880915504833018F4F9
:1033E0008F5F8093550460915104709152048091D5
:1033F0005304909154040C949A18E1E5F4E083E0AE
:10340000808311828FEF8283838314826081718134
:10341000828193810C949A186CEE7EEF90E080E0AC
:103420000E94A12F60E082E090E00E94832F60E084
:1034300083E090E00E94832F10929B0310929C03E4
:1034400010929D0310929E0360E084E090E00E9441
:10345000832F60E081E290E00E94832F60E085E0AE
:1034600090E00E94832F60E086E090E00E94832F2E
:103470006FEF87E090E00E94832F40E050E0BA01B8
:1034800088E090E00E94952F60E08DE090E00E943F
:10349000832F40E050E0BA0188E190E00E94952F30
:1034A00060E087E190E00E94832F40E050E0BA01A5
:1034B0008CE190E00E94952F60E080E290E00E9415
:1034C000832F40E050E0BA018FE090E00E94952FFA
:1034D00040E050E0BA0183E190E00C94952F1F92F8
:1034E0000F920FB60F9211242F933F934F935F9338
:1034F0006F937F938F939F93AF93BF93CF93DF93FC
:10350000EF93FF93D091E900DF708091EC00C82F1A
:10351000C17080FDC0E81092E9008091F000877FC3
:103520008093F00078940E9424111092E900809119
:10353000F00088608093F000CD2BCF70C093E9003D
:10354000FF91EF91DF91CF91BF91AF919F918F91BB
:103550007F916F915F914F913F912F910F900FBE8F
:103560000F901F90189578941F921FB61F921124E8
:103570008F939F93AF93BF938091380490913904B8
:10358000A0913A04B0913B040196A11DB11D809316
:10359000380490933904A0933A04B0933B04BF914C
:1035A000AF919F918F911F901FBE1F9018952FB7BD
:1035B000F8948091380490913904A0913A04B09124
:1035C0003B042FBF08950F931F93CF93DF93C42F16
:1035D000D22FFC0182818823A1F040932B030E940B
:1035E000D71A9093260380932503C77081E001C00A
:1035F000880FCA95EAF7DF91CF911F910F910C9434
:10360000FA1310912B03141335C080912503909168
:1036100026030E94BB0A883C910560F5C0E2CD0FED
:103620001D17B9F080E2810F883040F4177081E0F7
:1036300001C0880F1A95EAF70E94EF13C83048F4CA
:1036400081E09D2F977001C0880F9A95EAF70E943C
:10365000FA13802F0E949015C83098F4D77081E03B
:1036600001C0880FDA95EAF7DF91CF911F910F9192
:103670000C94EF13C77081E001C0880FCA95EAF778
:10368000F3CFDF91CF911F910F9108956091510475
:10369000669570E04BE050E084E091E00E94552F89
:1036A000892B19F481E080930B040E94D71A909320
:1036B0000504809304048091500480FF08C08DE2CB
:1036C00093E09F938F930E9423090F900F9008958A
:1036D0009091510490FF55C0917081113CC092604F
:1036E000909351046623F1F160915104709152045A
:1036F00080915304909154040E949A188091500430
:1037000080FF0FC08091510486951F928F9389E9A5
:1037100092E09F938F930E9423090F900F900F9038
:103720000F9060915104669570E04BE050E084E0AA
:1037300091E00E94552F892B09F10E94A41481E089
:103740008093070420E040915404609153048091D9
:1037500052040C94AC188B3210F09465C1CF880FD2
:10376000982BBECF8091500480FFDBCF8091510415
:1037700086951F928F938BE792E0CBCF0E94461BDA
:10378000DECF08951F920F920FB60F9211242F9340
:103790003F934F935F936F937F938F939F93AF93D9
:1037A000BF93EF93FF938091E10082FF15C080915A
:1037B000E20082FF11C08091E1008B7F8093E100E5
:1037C00020914E042F5F822F62E30E94992E99234D
:1037D00009F4C6C020934E048091DA0080FF28C00F
:1037E0008091D80080FF24C08091DA008E7F809382
:1037F000DA008091D90080FFE9C080E189BD82E1D3
:1038000089BD09B400FEFDCF81E080937A048BE787
:103810009AE00E948A0880914F04811109C00E9499
:103820002C090E94F7098091E20084608093E200F5
:103830008091E10080FF1BC08091E20080FF17C0F3
:103840008091E2008E7F8093E2008091E2008061AF
:103850008093E2008091D80080628093D80019BCE8
:1038600085E080937A0483E89AE00E948A08809138
:10387000E10084FF35C08091E20084FF31C080E127
:1038800089BD82E189BD89B5982F917080FFFBCFFA
:103890008091D8008F7D8093D8008091E1008F7E49
:1038A0008093E1008091E2008F7E8093E20080911E
:1038B000E20081608093E20080917B04882309F418
:1038C0008FC084E080937A0487E89AE00E948A0897
:1038D0000E940F110E94710B0E94660E0E94461BEF
:1038E0008091E10083FF2BC08091E20083FF27C01D
:1038F0008091E100877F8093E10082E080937A04E9
:1039000010927B048091E1008E7F8093E100809192
:10391000E2008E7F8093E2008091E20080618093DC
:10392000E20042E060E080E00E94C5098091F00082
:1039300088608093F0008BE89AE00E948A08FF91EB
:10394000EF91BF91AF919F918F917F916F915F9117
:103950004F913F912F910F900FBE0F901F90189590
:1039600010924E0480914D04882309F435CF809144
:103970007A048430C1F49091E9009F702091EC00AA
:10398000822F817020FD80E8892B93E09093E900DD
:103990009091EB0090FF04C09091EE0097FD08C05D
:1039A0008F708093E90010924D0416CF1092F100B1
:1039B0009091E80095FDFACF9091E80090FFF0CF4C
:1039C0009091E8009E779093E800EACF19BC10929E
:1039D0007A048FE79AE00E948A0810924F0428CF59
:1039E0008091E30087FD93E090937A046DCF8091FE
:1039F00051048695815009F48AE261E00C94681BB9
:103A00008091510486958F5F8B3208F081E061E0F0
:103A10000C94681B9091510490FF07C096959817DD
:103A200020F0961710F40C94001D61E00C94681BB4
:103A30004F925F926F927F928F929F92AF92BF92BE
:103A4000CF92DF92EF92FF920F931F93CF93DF936A
:103A500000D000D00F92CDB7DEB77C01FC0183818E
:103A60009481892B39F010810181812F80238F3F30
:103A700009F082C50F900F900F900F900F90DF917B
:103A8000CF911F910F91FF90EF90DF90CF90BF905B
:103A9000AF909F908F907F906F905F904F90089520
:103AA0000E94F60DD82E682F89819A810E940F0BF3
:103AB000E02FF0E025E0D29EE00DF11D1124A4E0FE
:103AC000EE0FFF1FAA95E1F7E10FF11DEE0FFF1FAB
:103AD000E25CFA4F05911491033F3CE5130709F4AA
:103AE00095C0C0F5083D9CE5190709F489C0093D5A
:103AF000ECE51E0709F4A2C0073DFCE51F07B1F580
:103B000006E221EE41EE67ED7CE5C7010E94E31A73
:103B100080919703877009F4ADCFF70182818823E4
:103B200009F4A8CF82E00F900F900F900F900F90A4
:103B3000DF91CF911F910F91FF90EF90DF90CF9089
:103B4000BF90AF909F908F907F906F905F904F90BD
:103B50000C94CC10053F2CE5120709F463C008F45F
:103B60005BC0063F8CE5180709F462C0F70192813B
:103B7000992309F412C510922B030230FCE51F07AC
:103B800008F440C106312CE5120738F098012A5F8D
:103B90003C452930310508F035C10E948C189093BE
:103BA000A3038093A20300313CE5130709F4F9C095
:103BB00008F087C008309CE5190709F4E8C008F050
:103BC00056C00430FCE51F0709F4D9C0E8F50230FF
:103BD0003CE5130709F4C9C003301C4509F4CBC008
:103BE0006091A2031091A30384E090E00E94832FD0
:103BF000612F81E290E00E94832F0E940F1188CFF5
:103C000007E225EE45EE68ED7CE57FCF06E221EE8A
:103C100040EE63EF7CE579CF07E225EE44EE64EFFA
:103C20007CE573CF06E221EE42EE65EF7CE56DCFD9
:103C300007E225EE46EE66EF7CE567CF08E221E07D
:103C400045EE69ED7CE561CF8091A203806106308D
:103C50009CE5190709F48CC08091A20388600730A5
:103C60001C4508F485C08091A203806281C08091C8
:103C7000A2038D7F0C30FCE51F0709F479C070F4B6
:103C80008091A2038C600A303CE5130709F470C0F0
:103C900008F481C08091A2038E7F6AC08091A20344
:103CA000877F0E309CE5190709F462C08091A2035A
:103CB0008B7F0F301C4508F45BC08091A2038F7E80
:103CC00057C00B3FFCE51F0709F45DC030F5033119
:103CD0003CE5130709F46DC078F401319CE5190740
:103CE00009F463C002311C4509F07ACF0E940F111C
:103CF0008091A2038F773CC00531FCE51F0709F4D2
:103D000060C008F474C08091A30381600A3F1C4521
:103D100009F066CF8093A30363CF0F3F8CE51807AC
:103D200009F44BC088F48091A3038D7F0D3FECE52F
:103D30001E0781F38091A3038E7F0E3F1C4550F335
:103D40008091A3038360E6CF01302DE5120709F4CB
:103D500057C008F442C060E002301D4509F040CF72
:103D60008EE090E00E94832F3BCF8091A203816080
:103D70008093A20335CF8091A2038260F9CF809116
:103D8000A2038460F5CF8091A3038260C3CF8091AA
:103D9000A2038064EDCF0E940F118091A20380687E
:103DA000E7CF8091A2038F7DE3CF8091A2038F7B29
:103DB000DFCF8091A203837FDBCF8091A3038C7F31
:103DC000A9CF8091A20382FB992790F921E0922745
:103DD00090FB82F990FB83F9CBCF8091A303982FBE
:103DE000909591708E7F892B90FB81F993CF0E94E3
:103DF0000F119091A203892F97FB87F98058B8CFB4
:103E000061E0AECF80910C040631ECE51E0709F0AD
:103E1000D2C38A7A91E009F490E090932C0369E28E
:103E2000811165E382EB91E00E94C30F0E940910AB
:103E30006FCE8091500480FF10C080915104809516
:103E400081701F928F9384EE94E09F938F930E94D2
:103E500023090F900F900F900F908091510480FFD5
:103E60002EC08E7F80935104609151047091520452
:103E700080915304909154040E949A1880915004A8
:103E800080FF0FC08091510481701F928F9385E74E
:103E900094E09F938F930E9423090F900F900F90AF
:103EA0000F900E94A414FFEF20E732E0F150204071
:103EB0003040E1F700C000000E94981529CE8160D3
:103EC000809351048091500480FF0DC01F9281E0C7
:103ED0008F938DEA94E09F938F930E9423090F9014
:103EE0000F900F900F908091510461E086950E9491
:103EF000681B0ECE47EF5CE160E07DE10E947D0B28
:103F000007CE40E05DE167EF7CE1F8CF49EC59E195
:103F100062ED79E1F3CF42ED59E169EC79E1EECF61
:103F200041EB59E16DEB79E1E9CF4DEB59E161EB03
:103F300079E1E4CF49E959E165EA79E1DFCF45EA82
:103F400059E169E979E1DACF4BED59E16CEE79E1BC
:103F5000D5CF4CEE59E16BED79E1D0CF61E081E056
:103F6000C6CF65E082E00E940A1DD2CD68E086E0FF
:103F7000FACF6EE089E0F7CF64E18FE0F4CF67E13C
:103F800085E1F1CF61E088E1B2CF62E289E1EBCF78
:103F900061E083E2ACCF01308CE51807C1F10E3D42
:103FA000ECE51E0709F445C001151C4509F044C0A5
:103FB0000E940F112FEF34E38CE0215030408040FD
:103FC000E1F700C0000081E08093E00080E2809390
:103FD000D8001092C900EFE1FEE43197F1F700C07C
:103FE000000087E090EBDC0180938F0690939006B1
:103FF000A0939106B093920688E19CE00FB6F894E6
:10400000A895809360000FBE90936000FFCF9091C1
:104010005004892F8E7F90FF81608093500480FF31
:1040200005C08DE295E00E948A0872CD8BE195E093
:10403000FACF0E940C1A6CCDF701008111819923EF
:1040400009F43DC0C8010E94F60DD82E682FC801A2
:104050000E940F0BB8018D2D0E946A0C8C01882ED6
:10406000F701A580A2947FE0A722D280D110109200
:10407000990380919703877099F0DD2089F0812F53
:10408000807F803421F080E2800F883048F082E029
:104090000E94CC10809197038770CC24C394811127
:1040A000C12CB12EB2946FE0B622FBE0FB1508F4F0
:1040B00040C0EB2DF0E0EC5CFF4C0C94DB2EC80113
:1040C0000E94E80AD82EC6CF212F2F70A22E107F73
:1040D00019F0A29450EFA522DD20C9F0AA2069F0C2
:1040E00080E2800F883010F081100BC080910C04AA
:1040F000A82AA0920C040E940910802F0E94361456
:1041000018C080919903A82AA0929903F4CF802F18
:104110000E940414AA2069F0A094005E083010F0F8
:1041200081104BC080910C04A822A0920C040E9424
:104130000910EB2DE850FF0B349720F40E94710B0F
:104140000E94660ECC20A9F08091970380FD11C0DB
:10415000F70112828595859585950E94E410C70127
:104160000E94181D809197038595859585950E94DD
:10417000A91085E0F701DE01119601900D928A9554
:10418000E1F789819A810E94E80AEA81F0E025E05E
:10419000829FE00DF11D1124CF0124E0880F991FAB
:1041A0002A95E1F7E981E80FF92FF11DEE0FFF1FC6
:1041B000E25CFA4F859194915DCC80919903A8229D
:1041C000A0929903B4CF312F3F70932E107F1032FD
:1041D00019F0929440EF9422882071F081E08816C3
:1041E00061F1DD20B9F1AA2071F1F701858180FF2D
:1041F00084CF8F70858327C0DD2091F090919A0342
:10420000892D892BA11003C00E94FA1392CFE1E0FF
:10421000AE12FACF981709F48CCF80939A0389CF06
:10422000A11006C00E94E20A892D0E94EF1381CFDF
:10423000F1E0AF1609F47DCFF5CFDD2031F025E0B8
:104240002A1508F476CF892DDFCF34E03A1508F42B
:1042500070CFEACFAA2041F3F9E38F1286C12FEF86
:1042600037EE83E0215030408040E1F700C000008D
:104270007CC1812F86958695837061F0813009F02D
:1042800058CFC8019370D11002C090E080E00E9426
:10429000450B4FCFC8019370D11002C090E080E071
:1042A0000E945B0B46CF812F837009F066C0D1104E
:1042B00040CF802F829586958770880F880F602F5A
:1042C0006F70462E512C712C612C082E04C0440CAA
:1042D000551C661C771C0A94D2F740E050E0BA01E6
:1042E00004FF0FC04FE050E060E070E004C0440FF6
:1042F000551F661F771F8A95D2F740955095609598
:104300007095812F869586958370823019F1D8F447
:1043100000919B0310919C0320919D0330919E037B
:10432000813069F04429552966297729CB01BA01E2
:1043300060237123822393230E940511FACE402A21
:10434000512A622A732ACB01BA0164297529862968
:104350009729F2CF442955296629772900919B0393
:1043600010919C0320919D0330919E03CB01BA01D3
:104370006027712782279327DFCF8695DD2011F0F4
:10438000812F8170882309F4D4CE802F8295869561
:104390008770880F880F602F6F70462E512C712CFC
:1043A000612C082E04C0440C551C661C771C0A9412
:1043B000D2F740E050E0BA0104FF0FC04FE050E0F8
:1043C00060E070E004C0440F551F661F771F8A9598
:1043D000D2F74095509560957095812F869586957A
:1043E0008370823019F1D8F40091120410911304F3
:1043F0002091140430911504813069F04429552925
:1044000066297729CB01BA01602371238223932384
:104410000E949F108ECE402A512A622A732ACB0115
:10442000BA016429752986299729F2CF442955298B
:104430006629772900911204109113042091140425
:1044400030911504CB01BA01602771278227932789
:10445000DFCF1F70DD2029F0812F0E94E410802F14
:10446000D3CE802F0E94EF13812F0E94A91061CE1E
:10447000802F92EF891609F450C0981578F0E0EF7C
:104480008E1619F1F1EF8F1609F43FC0DD2009F403
:1044900067C0A11032CE812F8F713CC023EF8216EE
:1044A00009F440C034EF8312F1CFDD2009F44DC090
:1044B0001F71812F0E94E410E8E01E9FC0011124AB
:1044C000836080939703812F25C0DD20C9F084E0AD
:1044D0008A1508F42ECE1F7161E070E080E090E054
:1044E00004C0660F771F881F991F1A95D2F7009195
:1044F0001204109113042091140430911504A4CFD8
:1045000095E09A1508F415CEE6CF812F8F71DD2046
:1045100009F4ABCF0E94E4100CCE812F8F71DD2007
:10452000C9F3A3CF60E070E0CB01DD2009F470CFC8
:104530001F7161E070E080E090E004C0660F771FBB
:10454000881F991F1A95D2F763CF81E00E94CC1083
:10455000F1E0FA1508F0EDCD82E00E94CC10E9CD33
:10456000AA2039F0893309F47ACE802F0E940414EE
:10457000E0CD812F8F7179CF85E0DE01119601901A
:104580000D928A95E1F7F701228189819A812111A3
:1045900087CA0E94E80AD82E8BCA06311C4509F04A
:1045A0004BCD80912C0369E2811165E382EB91E0B0
:1045B0000E94880F3BCC8272F801E25CFC45E4313A
:1045C000F10508F0E8CCE05CFF4C0C94DB2E1F9367
:1045D000CF93DF9380913203807FA9F480912F03E2
:1045E000882389F080916403D091330360912D0377
:1045F00070912E03A0913003B0913103C62FC723D1
:1046000016E0D81304C0DF91CF911F91089590E078
:10461000109711F0CF3F19F401968770F2CF189FD1
:104620009001199F300D1124F901EC5CFC4F418180
:104630004713F2CF40814613EFCF42814111ECCFB7
:10464000438154814A1B5B0B483C510528F78091FC
:1046500032038F70806180933203F901E75CFC4F75
:1046600080818F70806180838DE293E00E94181DAD
:10467000DF91CF911F910C943B0BAF92BF92CF92E1
:10468000DF92EF92FF920F931F93CF93DF93CDB7FB
:10469000DEB761970FB6F894DEBF0FBECDBF8C01B9
:1046A00085E0F801DE011D9601900D928A95E1F7F3
:1046B000F80180819181E2802DE2A22E23E0B22ECA
:1046C00060913003709131036115710509F43EC1A9
:1046D00030912D0340912E03232F24232F3F09F4E3
:1046E00035C1C380D480F0902F03F601E61BF70B91
:1046F000FF2009F4FBC020913203522F507FE83C89
:10470000F10508F0BBC0511178C0FE2C491321C03F
:1047100038131FC0E1101DC02F7020612093320399
:10472000C5010E94181D80913203F80185838F2DE9
:1047300061960FB6F894DEBF0FBECDBFDF91CF916B
:104740001F910F91FF90EF90DF90CF90BF90AF90AF
:104750000895CD2829F0282F29232F3F09F014C1CF
:1047600020E0F22FF170DF2E20FF3DC02091640386
:104770004091330356E0241315C08D879E878D85A5
:104780009E850E94380E292F22952F702230F8F036
:10479000243020F59F70F9F0F8019581907FD9F4CD
:1047A000D12C1FC030E0529FF001539FF00D112417
:1047B000EC5CFC4F6181961306C06081861303C0D8
:1047C0006281E61210C02F5F3F4F2770D4CF9F70D9
:1047D00011F0882329F3805E883010F3C8010E940D
:1047E000181DFD2CA4CFEE2009F4A1CF8091320337
:1047F000816080933203F12C9ACF491312C0381391
:1048000010C0E1100EC0F8012583C8010E94181DD8
:1048100086E0F801ADE2B3E001900D928A95E1F7F0
:1048200086CF8D879E878D859E850E94420E882328
:1048300009F1EE20F9F080913203803270F020917E
:104840002D0330912E0338872F831986DB86CA8685
:104850008C87CE0107960E94181D86E0F801ADE214
:10486000B3E001900D928A95E1F70E94E722FF24C0
:10487000F3945DCFC8010E94181DF9CF51110AC0F1
:104880008DE293E00E94181D86E0F50111928A9551
:10489000E9F7B1CF49130FC038130DC0E1100BC0B9
:1048A000F8012583C8010E94181D86E0F5011192C8
:1048B0008A95E9F73CCF8D879E878D859E850E94DE
:1048C000420E8823B9F2EE20A9F2809132038032A1
:1048D00020F220912D0330912E033A8329831B82ED
:1048E000DD82CC828E83CE010196B5CFE83CF10506
:1048F000E0F6FE2CEE2009F4BDCF491316C03813A4
:1049000014C08091320380FD83CF982F907F09F4EB
:104910007FCFF8018583903F09F477CF982F907F60
:10492000905F8F70892B858370CF8D879E878D8553
:104930009E850E94420E811190CF8091320381604A
:1049400080933203C8010E94181DF1CEEE2009F4B5
:1049500091CF8D879E878D859E850E94420EF82E71
:10496000882309F487CF86E0F801ADE2B3E0019037
:104970000D928A95E1F780912D0390912E030E946C
:10498000380E0E94E722D3CE21E02E25EACE1F93D7
:10499000CF93DF93CDB7DEB767970FB6F894DEBF3E
:1049A0000FBECDBF4B8B5C8B6D8B7E8B8F8B1A8A32
:1049B000198A85E0FE017396DE011D9601900D9225
:1049C0008A95E1F786E0FE013D96DE01179601909B
:1049D0000D928A95E1F7CE0107960E943D23882328
:1049E00089F016E08091640390913303891349C0E4
:1049F00067960FB6F894DEBF0FBECDBFDF91CF91A3
:104A00001F91089586E0FE013796DE011196019010
:104A10000D928A95E1F78A859B85892B11F38F8109
:104A2000988589238F3FE9F22091330330E0C90153
:104A3000019687709927409164034817190671F40D
:104A40000E940F11109233031092640386E0EDE28E
:104A5000F3E0DF011D928A95E9F7C3CF96E0929FBC
:104A6000D001939FB00D1124AC5CBC4FFE01319678
:104A700001900D929A95E1F7809333030E943B0BCE
:104A8000B0CF819FC00111248C5C9C4F0E943D23BC
:104A9000882309F4ADCF8091640390E0019687707C
:104AA0009927809364039ECFCDB7DEB762970FB688
:104AB000F894DEBF0FBECDBF84B7877F84BF0FB62B
:104AC000F894A895809160008861809360001092AE
:104AD00060000FBE80E890E00FB6F894809361000C
:104AE000909361000FBE85B7806885BF85B78068E9
:104AF00085BF0E942C090E94F7098091E200846022
:104B00008093E20083EB94E19093B1018093B00134
:104B1000789480917A048823A1F01091E9001F70A5
:104B20009091EC00892F817090FD80E8182B1092F5
:104B3000E9008091E80083FD0E9424111F7010930A
:104B4000E90082E084BD93E095BD9AEF97BD809324
:104B50006E0024E831E0A0E8B1E061E070E08D9102
:104B6000E82FE295EF70F0E091A18F70AB0101C0EA
:104B7000440F8A95EAF7892F842B81A32A173B07D4
:104B800071F7A0E8B1E041E050E09D91E92FE29596
:104B9000EF70F0E062A19F708A0102C0000F111F48
:104BA0009A95E2F7C8018095862382A32A173B07CE
:104BB00061F729E831E0A4E8B1E041E050E08D91EF
:104BC000E82FE295EF70F0E011A18F70BA0101C0FB
:104BD000660F8A95EAF7962F9095912391A382A16B
:104BE000862B82A32A173B0751F71092F1031092EC
:104BF000F0031092FB031092FA031092F303109249
:104C0000F2031092FD031092FC031092F503109230
:104C1000F4031092FF031092FE031092F703109218
:104C2000F60310920104109200041092F9031092FE
:104C3000F803109203041092020490E080E00E94B6
:104C40007D2F8C3E9E4F11F00E940C1AF8948CE040
:104C50008093CC0082E08093C80098E99093C900CB
:104C600096E09093CA001092A1031092A0031092B4
:104C7000E8031092E90378948093360480E88093E7
:104C800084040E94B02D6DE070E088E597E00E94FA
:104C90002A0F892B09F4E2C18CE397E00E948A086D
:104CA00090E080E00E947D2F8C3E9E4F11F00E948C
:104CB0000C1A82E090E00E946F2F809350040E94B3
:104CC0008C189093A3038093A20383E090E00E944A
:104CD0006F2F682F70E090E080E00E9405118091B6
:104CE000A4038111E0C08091500480FF14C087EAC2
:104CF00098E09F938F930E942309809150040F9016
:104D00000F9080FF08C081E998E09F938F930E94E5
:104D100023090F900F9090E080E00E947D2F8C3E41
:104D20009E4F81F08091500480FF08C089E698E092
:104D30009F938F930E9423090F900F900E940C1A4B
:104D40000E94FD1988E090E00E94772F6093510443
:104D50007093520480935304909354046E7FD1F463
:104D60008091500480FF08C080E298E09F938F9369
:104D70000E9423090F900F900E94FD1988E090E097
:104D80000E94772F609351047093520480935304D0
:104D9000909354040E94820B8091500480FF76C04F
:104DA00087E098E09F938F930E942309809150049D
:104DB0000F900F9080FF6AC08091510481701F9204
:104DC0008F938AEE97E09F938F930E94230980919F
:104DD00050040F900F900F900F9080FF57C080915C
:104DE000510486951F928F938FEC97E09F938F933A
:104DF0000E942309809150040F900F900F900F9004
:104E000080FF44C0809152041F928F9385EB97E0FE
:104E10009F938F930E942309809150040F900F90CD
:104E20000F900F9080FF32C0809153041F928F9398
:104E30008BE997E09F938F930E9423098091500400
:104E40000F900F900F900F9080FF20C0809154041E
:104E50001F928F9381E897E09F938F930E9423097D
:104E6000809150040F900F900F900F9080FF0EC014
:104E7000809155041F928F9385E697E09F938F93BF
:104E80000E9423090F900F900F900F9010920B0427
:104E90008091510480FF04C060E086950E94681BE9
:104EA00081E08093A40325982D9A24982C9A83B1AD
:104EB00085FB882780F91C9927C190E0892B809376
:104EC0000F0489E191E090931104809310048AE625
:104ED0009AE00E948A0844244394512C50E040E018
:104EE0001B86AAEF8A2EA3E09A2E00E811E030E09C
:104EF00020E0D8018D918D01E82FE295EF70F0E070
:104F00008F70B20102C0660F771F8A95E2F7CB015E
:104F1000B201022E02C0660F771F0A94E2F76423E3
:104F20007523022E02C0759567950A94E2F792A147
:104F3000662309F4EBC0892B82A32F5F3F4F2430F7
:104F40003105B9F67AE17A95F1F700C001E010E099
:104F500020E030E0042E04C0000F111F221F331F79
:104F60000A94D2F77801980120953095E0EFF3E0AC
:104F700004E811E0B12C61917191D801DD908D01AF
:104F80008D2D82958F7090E0DC0190968C9190E051
:104F9000BD2DBF7002C095958795BA95E2F7DF01E8
:104FA00012976D0180FDB5C0CB018E299F298D938D
:104FB0009C93D6018D919C916817790711F0BB24C1
:104FC000B3948E169F06B9F6BB85BB29BB874F5F8E
:104FD0005F4F4031510509F088CFEB85EE2309F48E
:104FE0009CC0F1E0F093A7030E94D71A9093A60308
:104FF0008093A5038091A5039091A6030E94BB0A0C
:105000000B9708F48EC08091F0039091F103909378
:10501000FB038093FA038091F2039091F303909342
:10502000FD038093FC038091F4039091F50390932A
:10503000FF038093FE038091F6039091F703909312
:105040000104809300048091F8039091F9039093F8
:105050000304809302041092A70363C08091360476
:1050600063E070E081FD09C089E397E00E942A0FA8
:10507000892B61F083E197E011CE80E197E00E94F7
:105080002A0F892B19F088EF96E008CE6DE070E0CA
:105090008BEE96E00E942A0F892B19F084ED96E0A2
:1050A000FDCD2FB7F8948091380490913904A091E8
:1050B0003A04B0913B042FBF805A9541AF4FBF4F88
:1050C00080933C0490933D04A0933E04B0933F042E
:1050D000E7E8F4E080E092E0DF018C011D920150EE
:1050E0001040E1F7F0938E06E0938D068FEF9FEF6F
:1050F000909386048093850481E08093410480939B
:10510000400410923704CCCD92E0D8CE809589230C
:1051100013CFCB01822393234ACF8091A703811120
:1051200069CF61EE662E68E0762E75EFC72E78E0C7
:10513000D72EE1E1AE2EE9E0BE2EF7E58F2EF9E0A5
:105140009F2E8091E9039091E803891708F401C12B
:10515000891BA9F503E414E01F870E870AEF13E00B
:10516000198B088B10E000E05BE6652E59E0752E88
:10517000302EA889B989ED90FD90B98BA88BEE856A
:10518000FF85C190D190FF87EE87CE14DF0409F030
:10519000E2C00F5F1F4F0530110551F78FEF8E836F
:1051A0008F8318860E94D71A8160782F9A87898703
:1051B0004E815F8168858A850E94C724FCC08091EA
:1051C000EF03E82FF0E02091E9039091E80329171D
:1051D000D1F39091E8039F5F903408F090E0A92FFD
:1051E000B0E0A855BC4F2C919093E803E651FC4FDA
:1051F0002083811112C09091EA03993609F4A5C069
:105200008091500480FF06C09F928F920E942309D4
:105210000F900F901092EF0394CF843009F095C057
:1052200010E000E08AEE93E0DC012D91CD01020F49
:10523000111DB3E08E3E9B07B9F780915004817039
:105240009091EA03993621F49091EE039017E9F1D9
:10525000882341F0EEE3F9E0FF93EF930E942309E6
:105260000F900F90F12CE12C8091500480FF14C01E
:10527000F701E651FC4F80811F928F93FF92EF92CE
:105280006EEB78E07F936F930E9423090F900F904D
:105290000F900F900F900F909FEFE91AF90AA5E079
:1052A000EA16F10409F78091500480FFB3CF11276B
:1052B0001F930F93EBE2F9E0FF93EF930E94230912
:1052C0000F900F900F900F90A5CF0091EB031091CE
:1052D000EC039091ED030F3E2FEF120790F099230E
:1052E00041F0882309F496CF1F930F93BF92AF929A
:1052F000E5CF882309F48ECF1F930F93DF92CF92CF
:10530000DDCF992381F0882351F01F930F937F9273
:105310006F920E9423090F900F900F900F90802F93
:105320000E94361477CF882361F01F930F936BECA4
:1053300078E07F936F930E9423090F900F900F9056
:105340000F90802F0E94041465CF8F5F8093EF032E
:10535000F8CE805CFDCE8091500481FD48C1CE2402
:10536000DF2480E0AA24A394B12C96012A213B21BA
:10537000232B09F477C189833A82EA20FB2081E05C
:10538000EF2809F480E08B830E94D71A8160782F80
:105390009D838C8349815A816B818D810E94C724B2
:1053A000000F111FF801ED5BFB4F80819181A82652
:1053B000B926B182A08280910B04882309F441C0F0
:1053C00080910A04E0915104E695E81BE0930604FD
:1053D000823009F04EC1F0E0EF55F64FE4910E2F08
:1053E00010E088E6E82E88E1F82E809107048823F3
:1053F00089F0109207040E94D71A980120953095E1
:10540000820F931F90930504809304041092090463
:105410001092080480910404909105040E94BB0A34
:105420008017910770F0E0910404F09105040E0FCD
:105430001F1F109305040093040484E094E0F70117
:105440000995E0910F04EE0FEE0FE0930F0483B186
:1054500085FB882780F98C871D861C9976C180E0A2
:105460000C851D85802BE82BE0930F04EF70F0E096
:10547000E757FE4F808190910E04890F80930E04B0
:10548000843004F180910D048F5F80930D0480912E
:10549000120490911304A0911404B0911504009784
:1054A000A105B10509F462C1B695A79597958795B1
:1054B00080FF5CC180910C04982F947409F448C15A
:1054C0000E94C91980910E048D3F04F580910D044E
:1054D000815080930D048091120490911304A09147
:1054E0001404B09115040097A105B10509F450C149
:1054F000B695A7959795879580FF4AC180910C0432
:10550000982F947409F436C10E94D21980910E0428
:10551000837887FF03C081508C6F8F5F80930E0468
:1055200080914104882309F4CEC187E894E09093E8
:105530008E0680938D068AED99E00E94EA0E4091D6
:105540001204509113046091140470911504CB015E
:10555000AA27BB270097A105B10509F41DC1AC011D
:10556000BD0180E1052F162F272F332701151105C7
:105570002105310519F0885FB901A8018A019B0155
:10558000A4E03695279517950795AA95D1F70115AB
:1055900011052105310519F08C5FB901A8018A01B7
:1055A0009B01F2E03695279517950795FA95D1F767
:1055B000011511052105310519F08E5FB901A8010A
:1055C0007695679557954795452B462B472B09F0C0
:1055D0008F5F882309F4E2C0813009F4AAC183EC0B
:1055E00099E00E94EA0E81E00E94F80EDBC089E794
:1055F00099E00E948A083AEFA32E33E0B32E912C53
:10560000812C9F928F9224E739E03F932F930E9441
:10561000230981E799E00E948A08D5018C911196AF
:10562000BC91BA8BE2E0AE0EB11C0E94CA0A282ED1
:105630008A890E94CA0A2F928F937F926F920E944A
:10564000230989E699E00E948A08FFEF8F1A9F0AD2
:105650000FB6F894DEBF0FBECDBF35E083169104C0
:1056600081F67DCE8F5FAA0CBB1C803109F07DCE08
:1056700090CD863059F4F0E0E256F64FE4910E2FCB
:1056800010E0BCE7EB2EB8E1FB2EAFCE893061F421
:10569000E695F0E0E556F64FE4910E2F10E0A6E512
:1056A000EA2EA6E1FA2EA1CE8F3061F4E695F0E065
:1056B000E856F64FE4910E2F10E0F0E8EF2EF6E1F9
:1056C000FF2E93CE853159F4F0E0EB56F64FE4917E
:1056D0000E2F10E0EEEEEE2EE6E1FE2E86CE08E274
:1056E00010E05CE3E52E57E1F52E883109F47DCE1C
:1056F000833249F4E3E9F9E0059114917FE0E72E64
:1057000078E1F72E72CE04EF11E045ECE42E47E18C
:10571000F42E843209F469CE00ED17E036EBE32E67
:105720003AE0F32E853209F060CE8E2F63E00E94BE
:10573000992EE92FF0E0E057F64FE4910E2F10E09C
:105740006DECE62E65E1F62E50CE82E090E088CE3C
:10575000982F917119F00E949919B4CE827219F0A4
:105760000E94B119AFCE0E94F71CACCE8AEA0E940B
:105770009015A8CE982F917119F00E94A519C6CE48
:10578000827219F00E94BD19C1CE0E94001DBECECA
:1057900089EA0E949015BACE80E0E4CE81ED99E0CE
:1057A0000E94EA0EE0911004F0911104309709F480
:1057B000C3C00190F081E02D0995182F8EEB99E080
:1057C00010FD02C089EB99E00E94EA0E8FEA99E091
:1057D00011FF02C084EB99E00E94EA0E85EA99E08D
:1057E00012FF02C08AEA99E00E94EA0E2091850425
:1057F0003091860421153105C1F180913704811162
:1058000034C0082F10E07201082E02C0EE0CFF1CFD
:105810000A94E2F7A70142235323452B09F48EC0D3
:105820009091360490FD8CC08295880F807680938D
:1058300014019801369527953695279520931701E1
:10584000815E809315011092180124E630E047E054
:1058500050E062E171E088E70E94412E892B09F453
:105860007DC086E19AE00E948A08809140048823E6
:1058700051F12FB7F8948091380490913904A09198
:105880003A04B0913B042FBF40913C0450913D0439
:1058900060913E0470913F04841B950BA60BB70BDF
:1058A000B7FD11C080914004882369F062E070E088
:1058B0008EE49AE00E942A0F892B09F4E6C089E35E
:1058C0009AE00E948A08FB85F1110E945A0F0E94FB
:1058D000710B90914204891709F400CB0E94710B5F
:1058E000182F809342048091500482FF1EC080FFD5
:1058F0001CC087E59AE00E948A088091500480FFCE
:1059000014C01F921F9382E59AE09F938F930E9489
:105910002309809150040F900F900F900F9080FFFB
:1059200004C080E59AE00E948A08812F0E94660EDA
:10593000D5CA8DEC99E034CF10E044CF8F5F61CFB2
:10594000880F880F880F8093140110921701895FC8
:105950008093150183E08093180177CFA80125E09B
:10596000440F551F2A95E1F78091360480FD10C041
:1059700049575B4F04E610E020E230E060E488E73E
:105980000E94682E892B09F471C08DEF99E06BCFCE
:10599000E6E1F4E080E2DF011D928A95E9F7EDE9A6
:1059A000F1E0FF87EE8709E911E081EA282E81E026
:1059B000382E97E0A92EAE85BF852D91BF87AE8783
:1059C000F80161908F01640E752E711CB301695747
:1059D0007B4F3B01E22FF0E0EA5EFB4F30E020E03E
:1059E0008A2C821AB42C022E01C0BB0C0A94EAF74E
:1059F000630190E0D6018D916D018B21682D691BAB
:105A00006770962E062E000C770BB82F01C0BB0FC7
:105A10009A94EAF79B2E71956195710967707727C3
:105A200001C086956A95EAF7982A8081982A908223
:105A30009F5F9830F9F62F5F3F4F31962830310540
:105A400079F6EE85FF852E163F0609F0B4CF04E601
:105A500010E020E230E046E154E060E488E70E9494
:105A6000682E892B19F082EE99E0FDCE0E945A0F24
:105A7000E094F0948091850490918604E822F922C4
:105A8000F0928604E0928504F0CE109240041BCF81
:105A90001F921FB61F9211248F939F93AF93BF93B2
:105AA0008091380490913904A0913A04B0913B045C
:105AB0004196A11DB11D8093380490933904A093A1
:105AC0003A04B0933B04BF91AF919F918F911F9087
:105AD0001FBE1F9018952F932FB72F938F939F93CF
